{
  "_format": "hh-sol-artifact-1",
  "contractName": "AugmintCoordinator",
  "sourceName": "contracts/coordinator/AugmintCoordinator.sol",
  "abi": [
    {
      "anonymous": false,
      "inputs": [
        {
          "indexed": true,
          "internalType": "uint256",
          "name": "requestId",
          "type": "uint256"
        },
        {
          "indexed": false,
          "internalType": "uint256",
          "name": "chainId",
          "type": "uint256"
        },
        {
          "indexed": false,
          "internalType": "address",
          "name": "queryAddress",
          "type": "address"
        }
      ],
      "name": "BalanceQueryRequestInitated",
      "type": "event"
    },
    {
      "anonymous": false,
      "inputs": [
        {
          "indexed": true,
          "internalType": "uint256",
          "name": "requestId",
          "type": "uint256"
        },
        {
          "indexed": false,
          "internalType": "uint256",
          "name": "chainId",
          "type": "uint256"
        },
        {
          "indexed": false,
          "internalType": "address",
          "name": "contractAddress",
          "type": "address"
        },
        {
          "indexed": false,
          "internalType": "bytes",
          "name": "callData",
          "type": "bytes"
        }
      ],
      "name": "ContractReadRequestInitated",
      "type": "event"
    },
    {
      "anonymous": false,
      "inputs": [
        {
          "indexed": true,
          "internalType": "uint256",
          "name": "requestId",
          "type": "uint256"
        },
        {
          "indexed": false,
          "internalType": "uint256",
          "name": "chainId",
          "type": "uint256"
        },
        {
          "indexed": false,
          "internalType": "address",
          "name": "contractAddress",
          "type": "address"
        },
        {
          "indexed": false,
          "internalType": "bytes",
          "name": "callData",
          "type": "bytes"
        },
        {
          "indexed": false,
          "internalType": "address",
          "name": "signer",
          "type": "address"
        }
      ],
      "name": "ContractWriteRequestInitated",
      "type": "event"
    },
    {
      "anonymous": false,
      "inputs": [
        {
          "indexed": true,
          "internalType": "uint256",
          "name": "requestId",
          "type": "uint256"
        },
        {
          "indexed": false,
          "internalType": "uint256",
          "name": "chainId",
          "type": "uint256"
        },
        {
          "indexed": false,
          "internalType": "address",
          "name": "recepientAddress",
          "type": "address"
        },
        {
          "indexed": false,
          "internalType": "uint256",
          "name": "amount",
          "type": "uint256"
        }
      ],
      "name": "NativePaymentRequestInitiated",
      "type": "event"
    },
    {
      "anonymous": false,
      "inputs": [
        {
          "indexed": true,
          "internalType": "address",
          "name": "previousOwner",
          "type": "address"
        },
        {
          "indexed": true,
          "internalType": "address",
          "name": "newOwner",
          "type": "address"
        }
      ],
      "name": "OwnershipTransferred",
      "type": "event"
    },
    {
      "anonymous": false,
      "inputs": [
        {
          "indexed": true,
          "internalType": "uint256",
          "name": "requestId",
          "type": "uint256"
        },
        {
          "indexed": false,
          "internalType": "bool",
          "name": "isSuccess",
          "type": "bool"
        },
        {
          "indexed": false,
          "internalType": "bytes",
          "name": "data",
          "type": "bytes"
        }
      ],
      "name": "RequestCompleted",
      "type": "event"
    },
    {
      "anonymous": false,
      "inputs": [
        {
          "indexed": true,
          "internalType": "uint256",
          "name": "requestId",
          "type": "uint256"
        },
        {
          "indexed": true,
          "internalType": "bool",
          "name": "isFulfillmentSuccessful",
          "type": "bool"
        },
        {
          "indexed": true,
          "internalType": "bool",
          "name": "isCallbackSuccessful",
          "type": "bool"
        },
        {
          "indexed": false,
          "internalType": "bytes",
          "name": "returnData",
          "type": "bytes"
        }
      ],
      "name": "RequestFulfilled",
      "type": "event"
    },
    {
      "anonymous": false,
      "inputs": [
        {
          "indexed": true,
          "internalType": "uint256",
          "name": "requestId",
          "type": "uint256"
        },
        {
          "indexed": false,
          "internalType": "uint256",
          "name": "chainId",
          "type": "uint256"
        },
        {
          "indexed": false,
          "internalType": "address",
          "name": "tokenAddress",
          "type": "address"
        },
        {
          "indexed": false,
          "internalType": "address",
          "name": "recepientAddress",
          "type": "address"
        },
        {
          "indexed": false,
          "internalType": "uint256",
          "name": "amount",
          "type": "uint256"
        }
      ],
      "name": "TokenPaymentRequestInitiated",
      "type": "event"
    },
    {
      "inputs": [
        {
          "internalType": "uint256",
          "name": "incomingRequestId",
          "type": "uint256"
        },
        {
          "internalType": "address",
          "name": "targetAddress",
          "type": "address"
        },
        {
          "internalType": "uint256",
          "name": "amount",
          "type": "uint256"
        }
      ],
      "name": "acceptIncomingPaymentRequest",
      "outputs": [],
      "stateMutability": "nonpayable",
      "type": "function"
    },
    {
      "inputs": [
        {
          "internalType": "uint256",
          "name": "incomingRequestId",
          "type": "uint256"
        },
        {
          "internalType": "address",
          "name": "targetAddress",
          "type": "address"
        },
        {
          "internalType": "bytes",
          "name": "callData",
          "type": "bytes"
        },
        {
          "internalType": "address",
          "name": "signer",
          "type": "address"
        }
      ],
      "name": "acceptIncomingWriteRequest",
      "outputs": [],
      "stateMutability": "nonpayable",
      "type": "function"
    },
    {
      "inputs": [
        {
          "internalType": "uint256",
          "name": "requestId",
          "type": "uint256"
        },
        {
          "internalType": "bool",
          "name": "isFulfillmentSuccess",
          "type": "bool"
        },
        {
          "internalType": "bytes",
          "name": "returnData",
          "type": "bytes"
        }
      ],
      "name": "fullfillRequest",
      "outputs": [],
      "stateMutability": "nonpayable",
      "type": "function"
    },
    {
      "inputs": [
        {
          "internalType": "uint256",
          "name": "requestId",
          "type": "uint256"
        }
      ],
      "name": "getOutgoingRequestStatus",
      "outputs": [
        {
          "components": [
            {
              "internalType": "enum OutgoingCoordinator.OutgoingRequestTypes",
              "name": "requestType",
              "type": "uint8"
            },
            {
              "internalType": "enum OutgoingCoordinator.OutgoingRequestStatus",
              "name": "status",
              "type": "uint8"
            },
            {
              "internalType": "address",
              "name": "callbackAddress",
              "type": "address"
            },
            {
              "internalType": "string",
              "name": "callbackSelector",
              "type": "string"
            },
            {
              "internalType": "uint256",
              "name": "requestId",
              "type": "uint256"
            }
          ],
          "internalType": "struct OutgoingCoordinator.OutgoingRequest",
          "name": "",
          "type": "tuple"
        }
      ],
      "stateMutability": "view",
      "type": "function"
    },
    {
      "inputs": [
        {
          "internalType": "uint256",
          "name": "requestId",
          "type": "uint256"
        }
      ],
      "name": "getRequestDetails",
      "outputs": [
        {
          "components": [
            {
              "internalType": "enum IncomingCoordinator.IncomingRequestType",
              "name": "requestType",
              "type": "uint8"
            },
            {
              "internalType": "uint256",
              "name": "requestId",
              "type": "uint256"
            },
            {
              "internalType": "enum IncomingCoordinator.IncomingRequestStatus",
              "name": "status",
              "type": "uint8"
            },
            {
              "internalType": "address",
              "name": "targetAddress",
              "type": "address"
            },
            {
              "internalType": "bytes",
              "name": "callData",
              "type": "bytes"
            },
            {
              "internalType": "address",
              "name": "signer",
              "type": "address"
            },
            {
              "internalType": "uint256",
              "name": "amount",
              "type": "uint256"
            }
          ],
          "internalType": "struct IncomingCoordinator.IncomingRequest",
          "name": "",
          "type": "tuple"
        }
      ],
      "stateMutability": "view",
      "type": "function"
    },
    {
      "inputs": [
        {
          "internalType": "uint256",
          "name": "chainId",
          "type": "uint256"
        },
        {
          "internalType": "address",
          "name": "targetContractAddress",
          "type": "address"
        },
        {
          "internalType": "bytes",
          "name": "callData",
          "type": "bytes"
        },
        {
          "internalType": "address",
          "name": "callbackAddress",
          "type": "address"
        },
        {
          "internalType": "string",
          "name": "callbackSelector",
          "type": "string"
        }
      ],
      "name": "initiateContractReadRequest",
      "outputs": [
        {
          "internalType": "uint256",
          "name": "requestId",
          "type": "uint256"
        }
      ],
      "stateMutability": "nonpayable",
      "type": "function"
    },
    {
      "inputs": [
        {
          "internalType": "uint256",
          "name": "chainId",
          "type": "uint256"
        },
        {
          "internalType": "address",
          "name": "targetContractAddress",
          "type": "address"
        },
        {
          "internalType": "bytes",
          "name": "callData",
          "type": "bytes"
        },
        {
          "internalType": "address",
          "name": "signer",
          "type": "address"
        },
        {
          "internalType": "address",
          "name": "callbackAddress",
          "type": "address"
        },
        {
          "internalType": "string",
          "name": "callbackSelector",
          "type": "string"
        }
      ],
      "name": "initiateContractWriteRequest",
      "outputs": [
        {
          "internalType": "uint256",
          "name": "requestId",
          "type": "uint256"
        }
      ],
      "stateMutability": "nonpayable",
      "type": "function"
    },
    {
      "inputs": [
        {
          "internalType": "uint256",
          "name": "chainId",
          "type": "uint256"
        },
        {
          "internalType": "address",
          "name": "recepientAddress",
          "type": "address"
        },
        {
          "internalType": "uint256",
          "name": "amount",
          "type": "uint256"
        },
        {
          "internalType": "address",
          "name": "callbackAddress",
          "type": "address"
        },
        {
          "internalType": "string",
          "name": "callbackSelector",
          "type": "string"
        }
      ],
      "name": "initiateNativePaymentRequest",
      "outputs": [
        {
          "internalType": "uint256",
          "name": "requestId",
          "type": "uint256"
        }
      ],
      "stateMutability": "nonpayable",
      "type": "function"
    },
    {
      "inputs": [
        {
          "internalType": "uint256",
          "name": "chainId",
          "type": "uint256"
        },
        {
          "internalType": "address",
          "name": "tokenAddress",
          "type": "address"
        },
        {
          "internalType": "address",
          "name": "recepientAddress",
          "type": "address"
        },
        {
          "internalType": "uint256",
          "name": "amount",
          "type": "uint256"
        },
        {
          "internalType": "address",
          "name": "callbackAddress",
          "type": "address"
        },
        {
          "internalType": "string",
          "name": "callbackSelector",
          "type": "string"
        }
      ],
      "name": "initiateTokenPaymentRequest",
      "outputs": [
        {
          "internalType": "uint256",
          "name": "requestId",
          "type": "uint256"
        }
      ],
      "stateMutability": "nonpayable",
      "type": "function"
    },
    {
      "inputs": [
        {
          "internalType": "uint256",
          "name": "requestId",
          "type": "uint256"
        }
      ],
      "name": "makePayment",
      "outputs": [],
      "stateMutability": "payable",
      "type": "function"
    },
    {
      "inputs": [],
      "name": "owner",
      "outputs": [
        {
          "internalType": "address",
          "name": "",
          "type": "address"
        }
      ],
      "stateMutability": "view",
      "type": "function"
    },
    {
      "inputs": [],
      "name": "renounceOwnership",
      "outputs": [],
      "stateMutability": "nonpayable",
      "type": "function"
    },
    {
      "inputs": [
        {
          "internalType": "address",
          "name": "newOwner",
          "type": "address"
        }
      ],
      "name": "transferOwnership",
      "outputs": [],
      "stateMutability": "nonpayable",
      "type": "function"
    }
  ],
  "bytecode": "0x608060405234801561001057600080fd5b5061001a33610023565b60018055610073565b600080546001600160a01b038381166001600160a01b0319831681178455604051919092169283917f8be0079c531659141344cd1fd0a4f28419497f9722a3daafe3b4186f6b6457e09190a35050565b611cc0806100826000396000f3fe6080604052600436106100d25760003560e01c80638da5cb5b1161007f578063d4057b1711610059578063d4057b17146101fc578063dddfd0241461021c578063f2fde38b14610249578063f34d4c631461026957600080fd5b80638da5cb5b14610194578063905219a8146101bc5780639628cb23146101dc57600080fd5b806369e2e2d7116100b057806369e2e2d71461013f578063715018a61461015f578063836911cd1461017457600080fd5b80630658230f146100d75780632828d719146100f95780635114cb521461012c575b600080fd5b3480156100e357600080fd5b506100f76100f23660046114aa565b610296565b005b34801561010557600080fd5b50610119610114366004611527565b6104f4565b6040519081526020015b60405180910390f35b6100f761013a3660046115b0565b610680565b34801561014b57600080fd5b5061011961015a3660046115c9565b61089c565b34801561016b57600080fd5b506100f76109ff565b34801561018057600080fd5b5061011961018f366004611654565b610a13565b3480156101a057600080fd5b506000546040516001600160a01b039091168152602001610123565b3480156101c857600080fd5b506101196101d73660046116cc565b610b95565b3480156101e857600080fd5b506100f76101f736600461177a565b610d0e565b34801561020857600080fd5b506100f76102173660046117af565b610e5b565b34801561022857600080fd5b5061023c6102373660046115b0565b610fd6565b6040516101239190611884565b34801561025557600080fd5b506100f7610264366004611901565b611139565b34801561027557600080fd5b506102896102843660046115b0565b6111c6565b6040516101239190611923565b6001600085815260046020526040902054610100900460ff1660058111156102c0576102c061181e565b146103385760405162461bcd60e51b815260206004820152603560248201527f4175676d696e74436f6f7264696e61746f723a204f7574676f696e675265717560448201527f65737420616c72656164792066756c66696c6c6564000000000000000000000060648201526084015b60405180910390fd5b600084815260046020526040808220805491519092916201000090046001600160a01b03169060018401906103779089908990899089906024016119f7565b60408051601f19818403018152908290529161039291611a5d565b60408051918290039091206020830180517bffffffffffffffffffffffffffffffffffffffffffffffffffffffff167fffffffff00000000000000000000000000000000000000000000000000000000909216919091179052516103f69190611ad3565b6000604051808303816000865af19150503d8060008114610433576040519150601f19603f3d011682016040523d82523d6000602084013e610438565b606091505b505090508415610479578061044e576003610451565b60025b8254839061ff00191661010083600581111561046f5761046f61181e565b02179055506104ac565b80610485576005610488565b60045b8254839061ff0019166101008360058111156104a6576104a661181e565b02179055505b801515851515877fabee85d9afb139c5694fd467b3c7ea9e124e5267e95b531d12416451e1a13fd187876040516104e4929190611aef565b60405180910390a4505050505050565b60006104ff60035490565b905061050f600380546001019055565b6040805160a08101909152806003815260200160018152602001856001600160a01b0316815260200184848080601f01602080910402602001604051908101604052809392919081815260200183838082843760009201829052509385525050506020918201849052838152600491829052604090208251815491929091839160ff199091169060019084908111156105aa576105aa61181e565b021790555060208201518154829061ff0019166101008360058111156105d2576105d261181e565b0217905550604082015181546001600160a01b03909116620100000262010000600160b01b0319909116178155606082015160018201906106139082611b70565b50608091820151600290910155604080518a81526001600160a01b03808b1660208301528916918101919091526060810187905282917f21aafe7eca5ec7e1e930541bd86d478312420daebd7a15015d58745f2807f4b491015b60405180910390a2979650505050505050565b610688611351565b60008181526002602052604090206001600282015460ff1660038111156106b1576106b161181e565b146107245760405162461bcd60e51b815260206004820152602660248201527f4155474d494e545f434f4f5244494e41544f523a2072657175657374206e6f7460448201527f20666f756e640000000000000000000000000000000000000000000000000000606482015260840161032f565b806005015434146107835760405162461bcd60e51b8152602060048201526024808201527f4155474d494e545f434f4f5244494e41544f523a20416d6f756e74206d69736d6044820152630c2e8c6d60e31b606482015260840161032f565b6002810154600582015460405160009283926101009091046001600160a01b0316918381818185875af1925050503d80600081146107dd576040519150601f19603f3d011682016040523d82523d6000602084013e6107e2565b606091505b5091509150811561083e5760028301805460ff1916600317905560405184907ff1503061007960fa7961c4ecce32e7edcf56d632833cdfd6d4218717924ea75490610831906001908590611c30565b60405180910390a261088d565b6002838101805460ff19166001830217905550837ff1503061007960fa7961c4ecce32e7edcf56d632833cdfd6d4218717924ea754600083604051610884929190611c30565b60405180910390a25b50505061089960018055565b50565b60006108a760035490565b90506108b7600380546001019055565b6040805160a08101909152806002815260200160018152602001856001600160a01b0316815260200184848080601f01602080910402602001604051908101604052809392919081815260200183838082843760009201829052509385525050506020918201849052838152600491829052604090208251815491929091839160ff199091169060019084908111156109525761095261181e565b021790555060208201518154829061ff00191661010083600581111561097a5761097a61181e565b0217905550604082015181546001600160a01b03909116620100000262010000600160b01b0319909116178155606082015160018201906109bb9082611b70565b5060808201518160020155905050807f58861e90141f5742f943024d48ef3fd0fdc2585d1edb4a5af3975cdccc00362c8989898960405161066d9493929190611c4b565b610a076113aa565b610a116000611404565b565b6000610a1e60035490565b9050610a2e600380546001019055565b6040805160a08101909152806001815260200160018152602001856001600160a01b0316815260200184848080601f01602080910402602001604051908101604052809392919081815260200183838082843760009201829052509385525050506020918201849052838152600491829052604090208251815491929091839160ff19909116906001908490811115610ac957610ac961181e565b021790555060208201518154829061ff001916610100836005811115610af157610af161181e565b0217905550604082015181546001600160a01b03909116620100000262010000600160b01b031990911617815560608201516001820190610b329082611b70565b5060809190910151600290910155604080518881526001600160a01b038816602082015290810186905281907fdc10c8b0280e9488cf83cc0c367447f2f23b42ad9a9a28364998a79835047d5e9060600160405180910390a29695505050505050565b6000610ba060035490565b9050610bb0600380546001019055565b6040805160a08101909152806000815260200160018152602001856001600160a01b0316815260200184848080601f01602080910402602001604051908101604052809392919081815260200183838082843760009201829052509385525050506020918201849052838152600491829052604090208251815491929091839160ff19909116906001908490811115610c4b57610c4b61181e565b021790555060208201518154829061ff001916610100836005811115610c7357610c7361181e565b0217905550604082015181546001600160a01b03909116620100000262010000600160b01b031990911617815560608201516001820190610cb49082611b70565b5060808201518160020155905050807f9fc22ee269da2e9d2ac0da992ce0ce041b2f0ec4d7831d0710e74b94134ecc0b8a8a8a8a8a604051610cfa959493929190611c74565b60405180910390a298975050505050505050565b6040805160e08101909152806001815260208101859052604001600181526001600160a01b0384166020808301919091526040805180830182526000808252828501919091526060840181905260809093018590528683526002909152902081518154829060ff191660018381811115610d8a57610d8a61181e565b02179055506020820151816001015560408201518160020160006101000a81548160ff02191690836003811115610dc357610dc361181e565b021790555060608201516002820180546001600160a01b039092166101000274ffffffffffffffffffffffffffffffffffffffff001990921691909117905560808201516003820190610e169082611b70565b5060a082015160048201805473ffffffffffffffffffffffffffffffffffffffff19166001600160a01b0390921691909117905560c090910151600590910155505050565b6040805160e0810190915280600081526020810187905260400160018152602001856001600160a01b0316815260200184848080601f01602080910402602001604051908101604052809392919081815260200183838082843760009201829052509385525050506001600160a01b0384166020808401919091526040928301829052888252600290522081518154829060ff191660018381811115610f0357610f0361181e565b02179055506020820151816001015560408201518160020160006101000a81548160ff02191690836003811115610f3c57610f3c61181e565b021790555060608201516002820180546001600160a01b039092166101000274ffffffffffffffffffffffffffffffffffffffff001990921691909117905560808201516003820190610f8f9082611b70565b5060a082015160048201805473ffffffffffffffffffffffffffffffffffffffff19166001600160a01b0390921691909117905560c0909101516005909101555050505050565b6040805160a0810182526000808252602082018190529181018290526060808201526080810191909152600082815260046020819052604091829020825160a0810190935280549091839160ff16908111156110345761103461181e565b60048111156110455761104561181e565b81528154602090910190610100900460ff1660058111156110685761106861181e565b60058111156110795761107961181e565b815281546201000090046001600160a01b031660208201526001820180546040909201916110a690611a23565b80601f01602080910402602001604051908101604052809291908181526020018280546110d290611a23565b801561111f5780601f106110f45761010080835404028352916020019161111f565b820191906000526020600020905b81548152906001019060200180831161110257829003601f168201915b505050505081526020016002820154815250509050919050565b6111416113aa565b6001600160a01b0381166111bd5760405162461bcd60e51b815260206004820152602660248201527f4f776e61626c653a206e6577206f776e657220697320746865207a65726f206160448201527f6464726573730000000000000000000000000000000000000000000000000000606482015260840161032f565b61089981611404565b6040805160e0810182526000808252602082018190529181018290526060808201839052608082015260a0810182905260c081019190915260008281526002602052604090819020815160e081019092528054829060ff16600181111561122f5761122f61181e565b60018111156112405761124061181e565b815260018201546020820152600282015460409091019060ff16600381111561126b5761126b61181e565b600381111561127c5761127c61181e565b8152600282015461010090046001600160a01b031660208201526003820180546040909201916112ab90611a23565b80601f01602080910402602001604051908101604052809291908181526020018280546112d790611a23565b80156113245780601f106112f957610100808354040283529160200191611324565b820191906000526020600020905b81548152906001019060200180831161130757829003601f168201915b505050918352505060048201546001600160a01b0316602082015260059091015460409091015292915050565b6002600154036113a35760405162461bcd60e51b815260206004820152601f60248201527f5265656e7472616e637947756172643a207265656e7472616e742063616c6c00604482015260640161032f565b6002600155565b6000546001600160a01b03163314610a115760405162461bcd60e51b815260206004820181905260248201527f4f776e61626c653a2063616c6c6572206973206e6f7420746865206f776e6572604482015260640161032f565b600080546001600160a01b0383811673ffffffffffffffffffffffffffffffffffffffff19831681178455604051919092169283917f8be0079c531659141344cd1fd0a4f28419497f9722a3daafe3b4186f6b6457e09190a35050565b60008083601f84011261147357600080fd5b50813567ffffffffffffffff81111561148b57600080fd5b6020830191508360208285010111156114a357600080fd5b9250929050565b600080600080606085870312156114c057600080fd5b84359350602085013580151581146114d757600080fd5b9250604085013567ffffffffffffffff8111156114f357600080fd5b6114ff87828801611461565b95989497509550505050565b80356001600160a01b038116811461152257600080fd5b919050565b600080600080600080600060c0888a03121561154257600080fd5b873596506115526020890161150b565b95506115606040890161150b565b9450606088013593506115756080890161150b565b925060a088013567ffffffffffffffff81111561159157600080fd5b61159d8a828b01611461565b989b979a50959850939692959293505050565b6000602082840312156115c257600080fd5b5035919050565b600080600080600080600060a0888a0312156115e457600080fd5b873596506115f46020890161150b565b9550604088013567ffffffffffffffff8082111561161157600080fd5b61161d8b838c01611461565b909750955085915061163160608b0161150b565b945060808a013591508082111561164757600080fd5b5061159d8a828b01611461565b60008060008060008060a0878903121561166d57600080fd5b8635955061167d6020880161150b565b9450604087013593506116926060880161150b565b9250608087013567ffffffffffffffff8111156116ae57600080fd5b6116ba89828a01611461565b979a9699509497509295939492505050565b60008060008060008060008060c0898b0312156116e857600080fd5b883597506116f860208a0161150b565b9650604089013567ffffffffffffffff8082111561171557600080fd5b6117218c838d01611461565b909850965086915061173560608c0161150b565b955061174360808c0161150b565b945060a08b013591508082111561175957600080fd5b506117668b828c01611461565b999c989b5096995094979396929594505050565b60008060006060848603121561178f57600080fd5b8335925061179f6020850161150b565b9150604084013590509250925092565b6000806000806000608086880312156117c757600080fd5b853594506117d76020870161150b565b9350604086013567ffffffffffffffff8111156117f357600080fd5b6117ff88828901611461565b909450925061181290506060870161150b565b90509295509295909350565b634e487b7160e01b600052602160045260246000fd5b60005b8381101561184f578181015183820152602001611837565b50506000910152565b60008151808452611870816020860160208601611834565b601f01601f19169290920160200192915050565b60208152600082516005811061189c5761189c61181e565b806020840152506020830151600681106118b8576118b861181e565b806040840152506001600160a01b036040840151166060830152606083015160a060808401526118eb60c0840182611858565b9050608084015160a08401528091505092915050565b60006020828403121561191357600080fd5b61191c8261150b565b9392505050565b60208152600082516002811061193b5761193b61181e565b80602084015250602083015160408301526040830151600481106119615761196161181e565b80606084015250606083015161198260808401826001600160a01b03169052565b50608083015160e060a084015261199d610100840182611858565b905060a08401516119b960c08501826001600160a01b03169052565b5060c084015160e08401528091505092915050565b81835281816020850137506000828201602090810191909152601f909101601f19169091010190565b8481528315156020820152606060408201526000611a196060830184866119ce565b9695505050505050565b600181811c90821680611a3757607f821691505b602082108103611a5757634e487b7160e01b600052602260045260246000fd5b50919050565b6000808354611a6b81611a23565b60018281168015611a835760018114611a9857611ac7565b60ff1984168752821515830287019450611ac7565b8760005260208060002060005b85811015611abe5781548a820152908401908201611aa5565b50505082870194505b50929695505050505050565b60008251611ae5818460208701611834565b9190910192915050565b602081526000611b036020830184866119ce565b949350505050565b634e487b7160e01b600052604160045260246000fd5b601f821115611b6b57600081815260208120601f850160051c81016020861015611b485750805b601f850160051c820191505b81811015611b6757828155600101611b54565b5050505b505050565b815167ffffffffffffffff811115611b8a57611b8a611b0b565b611b9e81611b988454611a23565b84611b21565b602080601f831160018114611bd35760008415611bbb5750858301515b600019600386901b1c1916600185901b178555611b67565b600085815260208120601f198616915b82811015611c0257888601518255948401946001909101908401611be3565b5085821015611c205787850151600019600388901b60f8161c191681555b5050505050600190811b01905550565b8215158152604060208201526000611b036040830184611858565b8481526001600160a01b0384166020820152606060408201526000611a196060830184866119ce565b85815260006001600160a01b03808716602084015260806040840152611c9e6080840186886119ce565b9150808416606084015250969550505050505056fea164736f6c6343000811000a",
  "linkReferences": {},
  "deployedLinkReferences": {}
}